:020000040800F2
:100000004804002005300008B5010008B7010008C9
:1000100000000000000000000000000000000000E0
:10002000000000000000000000000000B90100080E
:100030000000000000000000BB010008BD01000836
:100040003530000800000000353000083530000869
:1000500035300008353000083530000835300008EC
:100060000000000035300008353000083530000849
:100070003530000835300008353000080000000039
:100080006D0400080000000000000000353000088A
:1000900035300008353000083530000835300008AC
:1000A000353000083530000835300008E902000816
:1000B000353000080348854603F068FA00480047D9
:1000C00019010008480400207CB50121480401F012
:1000D00060FF0120C00200900125694609260D71CC
:1000E0000324F6064C71304601F0A7FCE8030090AB
:1000F0000020694608714C71304601F09EFC1020CA
:10010000009069460D714C71304601F096FC10214B
:10011000304601F0F4FC7CBD08B5FFF7D5FF09249B
:100120000122E406D102204601F0EBFC00F048F881
:10013000C82000F06DF84B20C00100F090F815A029
:1001400003F048FA00F0EAF82F213B2000F05EF9B6
:1001500000F047FE00F0DFFF1F20C00201F09CF816
:10016000FF210131204601F0C8FC0F490D4808600D
:100170000E480021009044234722084601F0BEFAB1
:100180000B48712300901A465021322001F0B6FA34
:10019000FEE7000055736172742054657374204F3C
:1001A0004B0D0A00FF070000200000209C4C0008B7
:1001B000547200087047FEE77047704770470000B0
:1001C00010B50420C04302F0C3F91D481B49006864
:1001D00002F044FF1B49C0B27D220870D200504398
:1001E000488010BD174909784843174948610022E3
:1001F0008A6108690123184308610869C30701D0AF
:10020000C003FAD508694008400008618A61704758
:100210000C49498848430C49486100228A610869B1
:100220000123184308610869C30701D0C003FAD548
:1002300008694008400008618A61704700127A002E
:10024000340000200000002000E000E07047314949
:10025000CA691206FCD52F49203108817047F1B5D3
:1002600001218AB0480401F094FE0121880301F0C5
:1002700099FE0921CF060122384601F04AFC0122ED
:100280000A21384601F045FC032040020090022577
:100290006846057103214171002484710126C671ED
:1002A0006946384601F0C9FB0A98089404940594FD
:1002B000069403900C20174C079003A9204601F0E8
:1002C00006FF01221449204602F0C6F8012120460B
:1002D00001F066FF1B21684601724572867202A812
:1002E00002F00AF90BB0F0BD10B50A4C0A492046DD
:1002F00002F0E1F800280CD0204601F0E0FF0146B2
:10030000204601F0D8FF8021204602F0CBF80028DB
:10031000F9D010BD003801400501050030B50121BC
:1003200089B0480401F035FE0121480201F03AFE8F
:100330000120000601F00CFD06200690032168460E
:1003400001770024C477092006A9C00601F075FBD7
:100350002D4D284601F02EFA684601F04CFA684609
:100360000094047104200590029469460494284680
:1003700001F02EFA284601F0D2FA0121284601F0B8
:1003800042FA0121284601F008FB0028F9D009B003
:1003900030BD10B51C4C01460722204601F09AFAE8
:1003A000204601F0D8FA0421204601F0F6FA002890
:1003B000F9D0204601F0D4FA10BDF3B5002481B085
:1003C0000F4626462546009414E00198FFF7E1FF0A
:1003D000002D03D0A04203D2044605E0044602E00B
:1003E0000099884200D9009036180220FFF710FFCC
:1003F0006D1CEDB2BD42E8D30098B91E301A001B47
:1004000002F02CFE80B2FEBD0024014013B584B082
:100410000121022001F0CFFD102168460173002464
:1004200044730121817303A802F066F82F482E4916
:10043000006802F013FE2E49401E48806846008A7C
:1004400001906846818A018004814480294C694674
:10045000204602F0E5F801221146204602F052FC47
:100460000121204602F04DF906B010BD70B5214CB7
:100470000121204602F05AFC002832D001212046FA
:1004800002F060FC1A4C1C49E0880926401C80B22E
:100490000025F606E080884211D9E580A088401C3E
:1004A000A080208900281CD0401E0004000C208160
:1004B00008D1257000221021304601F022FB20894E
:1004C00000280ED02078401CC0B22070022801D233
:1004D000012202E0042805D200221021304601F05A
:1004E00010FB70BD257070BD808D5B003400002056
:1004F00008000020000400408206000070B50124BE
:10050000FF4DE40200222146284601F0FAFA0A20B3
:10051000FFF768FE01222146284601F0F2FAC820C2
:10052000FFF760FE70BDFEB501210025880401F0D3
:1005300030FDF34C01210C260022C902204601F0B7
:10054000E0FA7D27FF0001218902204601F0C3FA6D
:1005500002900120FFF75CFE6D1CADB2BD420DD9CB
:100560000122D102204601F0CCFA0122910220465C
:1005700001F0C7FAE3A003F02DF8FEBD02980128B0
:10058000E1D000250127FF0201223946204601F073
:10059000B8FA1E20FFF726FE00223946204601F059
:1005A000B0FA1E20FFF71EFE6D1CEDB2182DEBD326
:1005B0000122D5022946204601F0A3FA1E20FFF7AA
:1005C00011FE00222946204601F09BFA1E20FFF76B
:1005D00009FE01222946204601F093FA1E20FFF76A
:1005E00001FE00222946204601F08BFA1E20FFF76B
:1005F000F9FD01222946204601F083FA1E20FFF76B
:10060000F1FD00222946204601F07BFA1E20FFF76B
:10061000E9FD01222946204601F073FA1E20FFF76A
:10062000E1FD00222946204601F06BFA1E20FFF76B
:10063000D9FD01222946204601F063FA1E20FFF76A
:10064000D1FD00222946204601F05BFA1E20FFF76B
:10065000C9FD6F1001206946009708710020C8711C
:10066000204601F0EAF901222946204601F049FA24
:100670001E20FFF7B7FD01223946204601F041FA5E
:1006800000222946204601F03CFA1E20FFF7AAFD71
:1006900001222946204601F034FA1E20FFF7A2FD70
:1006A00001223946204601F02CFA00222946204634
:1006B00001F027FA1E20FFF795FD0122294620466A
:1006C00001F01FFA1E20FFF78DFD0022394620465B
:1006D00001F017FA00222946204601F012FA1E20E6
:1006E000FFF780FD01222946204601F00AFA1E206C
:1006F000FFF778FD00223946204601F002FA002279
:100700002946204601F0FDF91E20FFF76BFD01226E
:100710002946204601F0F5F91E20FFF763FD01226E
:100720003946204601F0EDF900222946204601F025
:10073000E8F91E20FFF756FD01222946204601F068
:10074000E0F91E20FFF74EFD00223946204601F059
:10075000D8F900222946204601F0D3F91E20FFF7E0
:1007600041FD01222946204601F0CBF91E20FFF76A
:1007700039FD01223946204601F0C3F900222946FD
:10078000204601F0BEF91E20FFF72CFD012229466C
:10079000204601F0B6F91E20FFF724FD002229466D
:1007A000204601F0AEF91E20FFF71CFD00257F005A
:1007B00001223946204601F0A4F91E20FFF712FD60
:1007C000300601D5012200E00022012189022046E5
:1007D00001F097F97006060E00223946204601F016
:1007E00090F91E20FFF7FEFC6D1CEDB2082DDFD343
:1007F00001223946204601F084F91E20FFF7F2FC61
:1008000000223946204601F07CF91E20FFF7EAFC61
:100810000120800200900020694608710120C87103
:10082000204601F00AF9FEBDFEB50121002588042D
:1008300001F0AFFB0127324CFF020022394620466F
:1008400001F05FF97D26F60001218902204601F0C2
:1008500042F902900120FFF7DBFC6D1CADB2B542FE
:100860000ED901223946204601F04BF901229102AE
:10087000204601F046F929A002F0ACFE0120FEBDA1
:1008800002980128E0D000263D4601222946204654
:1008900001F037F91E20FFF7A5FC0022294620466B
:1008A00001F02FF91E20FFF79DFC761CF6B2182EE2
:1008B000EBD301222946204601F023F91E20FFF741
:1008C00091FC00222946204601F01BF91E20FFF76B
:1008D00089FC01222946204601F013F91E20FFF76A
:1008E00081FC00222946204601F00BF91E20FFF76B
:1008F00079FC01222946204601F003F91E2019E067
:1009000000040048436F6E6669672052656769732B
:10091000746572206572726F720D0A0052656164AF
:10092000205265676973746572206572726F720D0B
:100930000A000000FFF756FC00222946204601F07D
:10094000E0F81E20FFF74EFC01222946204601F068
:10095000D8F81E20FFF746FC00222946204601F069
:10096000D0F81E20FFF73EFC01222946204601F068
:10097000C8F81E20FFF736FC00222946204601F069
:10098000C0F81E20FFF72EFC0126B602012768469C
:10099000009607710021C1716946204601F04DF8AB
:1009A00001222946204601F0ACF81E20FFF71AFC70
:1009B00001223146204601F0A4F8002229462046B3
:1009C00001F09FF81E20FFF70DFC0122294620466A
:1009D00001F097F81E20FFF705FC00223146204663
:1009E00001F08FF800222946204601F08AF81E20E7
:1009F000FFF7F8FB01222946204601F082F81E206D
:100A0000FFF7F0FB01223146204601F07AF8002280
:100A10002946204601F075F81E20FFF7E3FB01226E
:100A20002946204601F06DF81E20FFF7DBFB00226F
:100A30003146204601F065F800222946204601F0A3
:100A400060F81E20FFF7CEFB01222946204601F068
:100A500058F81E20FFF7C6FB01223146204601F060
:100A600050F800222946204601F04BF81E20FFF7DF
:100A7000B9FB01222946204601F043F81E20FFF76A
:100A8000B1FB01223146204601F03BF80022294605
:100A9000204601F036F81E20FFF7A4FB012229466C
:100AA000204601F02EF81E20FFF79CFB0022314665
:100AB000204601F026F800222946204601F021F8C0
:100AC0001E20FFF78FFB01222946204601F019F86E
:100AD0001E20FFF787FB00222946204601F011F86F
:100AE0001E20FFF77FFB0021684600960171C77149
:100AF0006946204600F0A1FF00263746012229461C
:100B0000204600F0FEFF1E20FFF76CFB0022294666
:100B1000204600F0F6FF1E20FFF764FB7006060E6D
:100B200001218902204600F0D6FF012801D1761C60
:100B3000F6B27F1CFFB2082FE0D3012229462046DF
:100B400000F0DFFF1E20FFF74DFB00222946204664
:100B500000F0D7FF1E20FFF745FB01208002009028
:100B60000021684601710121C1716946204600F0EB
:100B700064FF3046FEBDFEB501210026880401F069
:100B800008FA0125AD020020694600950871A94CBC
:100B9000C871204600F051FF00226900204600F095
:100BA000B0FF1CE02946204600F095FF07460120D3
:100BB000FFF72EFB761C7D20B6B2C00086420ED910
:100BC0000122D102204600F09CFF01222946204646
:100BD00000F097FF98A002F0FDFC0120FEBD012F60
:100BE000E0D0002601253746ED02012229462046A5
:100BF00000F087FF1E20FFF7F5FA00222946204665
:100C000000F07FFF1E20FFF7EDFA01217600890238
:100C1000204600F060FF012800D1761C7F1CFFB247
:100C2000182FE2D301222946204600F06AFF1E2039
:100C3000FFF7D8FA00222946204600F062FF1E2066
:100C4000FFF7D0FA01222946204600F05AFF1E2065
:100C5000FFF7C8FA00222946204600F052FF1E2066
:100C6000FFF7C0FA01222946204600F04AFF1E2065
:100C7000FFF7B8FA00222946204600F042FF1E2066
:100C8000FFF7B0FA01222946204600F03AFF1E2065
:100C9000FFF7A8FA00222946204600F032FF1E2066
:100CA000FFF7A0FA01222946204600F02AFF1E2065
:100CB000FFF798FA00222946204600F022FF1E2066
:100CC000FFF790FA002701222946204600F019FF7D
:100CD0001E20FFF787FA00222946204600F011FF68
:100CE0001E20FFF77FFA7F1CFFB2162FEBD30122E5
:100CF0002946204600F005FF1E20FFF773FA002268
:100D00002946204600F0FDFE1E20FFF76BFA012069
:100D1000800200900020694608710120C8712046B9
:100D200000F08BFE3046FEBD10B5FFF7FCFBFFF771
:100D30007BFD0C2802D044A002F04CFC10BDF0B5A5
:100D4000464E85B0306802F0B9FA0546FFF713FF4A
:100D500002F0B4FA04466800000E22D0204602F0E9
:100D6000C8FA3F4A3F4B0391029002F03FFA074610
:100D70002846049102F0BDFA3A4601910090049B86
:100D800002F0CCFA0CD3384A384B0399029802F09F
:100D90002DFA02460B460199009802F0D3FA00D2D0
:100DA0002C466000000E1AD0204602F0A2FA304A0B
:100DB000304B02F01BFA04460F46284602F099FA1F
:100DC0002D4A2E4B02F012FA22463B4602F05CF905
:100DD00002F0CCFA02F079FA306005B0F0BD30686C
:100DE000FBE77CB50121880401F0D3F80120C002A3
:100DF0000090012469460F4E0C710025CD713046DC
:100E000000F01BFEA002009069460D71CC713046C7
:100E100000F013FE7CBDC1430902090A491C00020F
:100E200002D50120C007014308460121C9058843B6
:100E3000704700000004004852656164204144206E
:100E40006572726F720D0A00496E69745F435331A7
:100E5000323337206572726F720D0A001400002061
:100E60009A9999999999E93F333333333333F33F5F
:100E7000AE47E17A14AEEF3F7B14AE47E17A843F90
:100E800070B50446FE4DC00701D0012200E00022EB
:100E90000121284600F035FE6008C00701D001227C
:100EA00000E000220221284600F02BFEA008C00727
:100EB00001D0012200E000220421284600F021FE9A
:100EC000E008C00701D0012200E0002208212846E6
:100ED00000F017FE2009C00701D0012200E0002227
:100EE0001021284600F00DFE6009C00701D0012244
:100EF00000E000222021284600F003FEA009C007E0
:100F000001D0012200E000224021284600F0F9FD36
:100F1000E00901D0012200E000228021284600F0F3
:100F2000F0FD70BD70B50126D54D04467603002254
:100F30003146284600F0E5FDA88A000A0002204359
:100F4000A882D04C00223146204600F0DAFD012272
:100F50003146204600F0D5FD01223146284600F0FA
:100F6000D0FD70BD70B50122C54D04465603314613
:100F7000284600F0C6FDA88A000A00022043A88285
:100F8000C04C00223146204600F0BBFD0122314614
:100F9000204600F0B6FD70BDF8B50122B84C0546FC
:100FA00056033146204600F0ACFDA08AE9B2000AA3
:100FB00000020843A082B34F00223146384600F0B9
:100FC000A0FD01223146384600F09BFD012231464A
:100FD000204600F096FDA08A290A000A0002084374
:100FE000A08200223146384600F08BFD01223146B6
:100FF000384600F086FDF8BDF8B507461C46154694
:101000000E462A20FFF78EFF3804000EFFF7AAFFD6
:10101000F8B2FFF7A7FF2804000EFFF7A3FFE8B21E
:10102000FFF7A0FF2B20FFF77DFF3004000EFFF736
:1010300099FFF0B2FFF796FF2004000EFFF792FF32
:10104000E0B2FFF78FFF2C20FFF76CFFF8BD70B503
:1010500001228C4D94032146284600F052FD0120C8
:10106000FFF7D6F800222146284600F04AFD0A2064
:10107000FFF7CEF801222146284600F042FD7820F5
:10108000FFF7C6F870BDFEB50121480400F081FFEE
:101090000121880400F07DFF01217B4800F079FFE9
:1010A000002000F0DCFD03256D030021684600955B
:1010B00041710124734E04716946304600F0BDFC55
:1010C0002946304600F01BFD660368460096047111
:1010D00003256B4F45716946384600F0AEFC31463A
:1010E000384600F00CFD20020090684604714571FE
:1010F00009206946C00600F0A0FCFF200090684669
:10110000047145716946384600F097FCFF21384666
:1011100000F0F5FCFEBD10B5FFF7B5FFFFF797FF38
:101120003620FFF7FFFE0020FFF71CFF3A20FFF7F5
:10113000F9FE0520FFF716FFB220FFF7F3FE0C20A3
:10114000FFF710FF0C20FFF70DFF0020FFF70AFF4D
:101150003320FFF707FF3320FFF704FFB720FFF727
:10116000E1FE3520FFF7FEFEBB20FFF7DBFE192076
:10117000FFF7F8FEC020FFF7D5FE2C20FFF7F2FEA8
:10118000C220FFF7CFFE0120FFF7ECFEC320FFF7E0
:10119000C9FE1220FFF7E6FEC420FFF7C3FE2020A1
:1011A000FFF7E0FEC620FFF7BDFE0F20FFF7DAFED7
:1011B000D020FFF7B7FEA420FFF7D4FEA120FFF751
:1011C000D1FEE020FFF7AEFED020FFF7CBFE0420DB
:1011D000FFF7C8FE0D20FFF7C5FE1120FFF7C2FE86
:1011E0001320FFF7BFFE2B20FFF7BCFE3F20FFF7C9
:1011F000B9FE5420FFF7B6FE4C20FFF7B3FE1820CF
:10120000FFF7B0FE0D20FFF7ADFE0B20FFF7AAFEA3
:101210001F20FFF7A7FE2320FFF7A4FEE120FFF722
:1012200081FED020FFF79EFE0420FFF79BFE0C20DE
:10123000FFF798FE1120FFF795FE1320FFF792FEAF
:101240002C20FFF78FFE3F20FFF78CFE4420FFF796
:1012500089FE5120FFF786FE2F20FFF783FE1F2017
:10126000FFF780FE1F20FFF77DFE2020FFF77AFEAC
:101270002320FFF777FE2120FFF754FE112005E021
:10128000000400480008004802000800FFF74AFE7A
:101290002920FFF747FE10BD70B50646EF23002159
:1012A0001A460846FFF7A8FE002400253046FFF73F
:1012B00073FE6D1CF02DF9D3641CF02CF5D370BDBA
:1012C000F8B51E4617465B1E521EFFF795FE002519
:1012D00008E0002403E00698FFF75EFE641CB442B9
:1012E000F9D36D1CBD42F4D3F8BDFEB5D408089EF9
:1012F000550700D001256419F94D5C43AF68CB1840
:101300008218521E5B1E0097FFF776FE3146F5A04D
:1013100002F060F900276643019617E0F44801994E
:10132000C0190E5C0025F00703D0ED4900988860D5
:1013300002E0EB4841688160E9488068FFF72CFED5
:101340006D1C7608EDB2082DEDD37F1CA742E5D3C6
:10135000E34900988860FEBD10B50B460246FFF7D2
:101360004BFEDF488068FFF717FE10BDFFB518463B
:1013700058438BB005090024159ED948069480680F
:1013800059080790F0200891421A0B998A4259D3C4
:10139000C11A0C98814255D3C3180B9908985B1E4B
:1013A0004218521E0C990B98FFF726FE002E01D012
:1013B000002041E00D9800266843019017E0149941
:1013C00001988919475C0024F80703D0C44907989D
:1013D000886002E0C24841688160C1488068FFF7C8
:1013E000DBFD641C7F08E4B2082CEDD3761CAE4212
:1013F000E5D324E00D98009A149968438918475C56
:1014000008980026401E0590F80706D006990C980B
:1014100041180B980019FFF79FFF0598641CA04224
:1014200003D206980024401C0690761C7F08F6B272
:10143000082EE9D30098401C0090A842DAD3A849AE
:10144000079888600FB0F0BD0246012000E05043CD
:101450000B46491EC9B2002BF9D17047FFB583B0C6
:10146000002706983C4645080D9E2EE0301B401E86
:10147000C1B20A20FFF7E8FF0146059801F0EEFD32
:101480000A2101F0EBFD0A46002F05D1701E8442AF
:1014900002DA002A0AD001270E990C9801910090D7
:1014A0002846039960434018069B09E091480E992D
:1014B000019100902846039960434018069B202222
:1014C0000499FFF753FF641CE4B2B442CED307B0D3
:1014D000F0BDFFB581B01F4616460C460198FFF7D8
:1014E0008BFD08E0019D03E00A98FFF755FD6D1C98
:1014F000B542F9D9641CBC42F4D905B0F0BD08B5B9
:10150000774A4B1D92680092421D401F491FFFF70A
:10151000E0FF08BDF0B58BB00024161A06905D1AE6
:10152000601E274604940591002E01DD012108E08C
:10153000002E05D076420990002D04DD01200BE03D
:1015400000210991F8E7002D05D06D420890AE42C8
:1015500004DD344603E000200890F8E72C46002024
:101560000790601C0A90079819E005990698FFF704
:10157000F3FE04987F1980190490A04205DD001B3A
:1015800004900999069840180690A74204DD08992E
:1015900005983F1B401805900798401C07900A9932
:1015A0008842E2D90BB0F0BDF8B51C4615460E4690
:1015B00007460B46FFF7AEFF3A4623463146104634
:1015C000FFF7A8FF23462A4619463846FFF7A2FF31
:1015D0002A46234631461046FFF79CFFF8BDF0B57A
:1015E0000E46074600255000032187B0081A14460E
:1015F00004903FE0711B381B01910090FFF7ACFE97
:10160000381901990590FFF7A7FE3119781B02914F
:101610000390FFF7A1FE01990098FFF79DFE311B93
:1016200001910398FFF798FE711903910598FFF750
:1016300093FE781901990190FFF78EFE02990198A7
:10164000FFF78AFE03990098FFF786FE04986D1C49
:10165000002804DAA9000818801D049006E0281B61
:101660008100049808180A30641E04903119781912
:10167000FFF772FEA542BDDD29E7FEB50224204634
:101680002821484300250190273000902846282132
:10169000484302462732009B0199FFF7ADFC4F23D8
:1016A00028211A460846FFF7A7FC002612487700B3
:1016B00038184078FFF756FC0F48C05DFFF752FC22
:1016C00019208001761C8642F0DB6D1C062DDDDBC7
:1016D000641C062CD3DB024900200870FEBD00000C
:1016E00018000020696E6465783D25640A000000DA
:1016F0001C3900081C3F00081C400008F8B51446BF
:101700005C43CB1882186400521E5B1E069DFFF7D7
:1017100073FC0026640808E0770078194078FFF72A
:1017200021FCE85DFFF71EFC761CB442F4D820498A
:1017300000200870F8BDFFB587B01D4E0446049028
:10174000B0680390D8085A0700D001228018099A7F
:10175000CB185043A21801902046521E5B1EFFF783
:101760004BFC00251DE010980026475DF80703D0CC
:101770000F490398886002E00D48416881600C4879
:101780008068FFF709FC0498641C211A09987F08F7
:10179000814201D1049C03E0761CF6B2082EE5D309
:1017A0006D1C01988542DED3014903988860F9E6F3
:1017B00018000020874910B5884208D1441501213E
:1017C000204600F00AFC0021204600F006FC10BD77
:1017D00030B5C368804A8C6813400A680D7922438B
:1017E000CC686D032C4322430C69496922430A43A8
:1017F0001A43C26030BD0021016001718160C16087
:101800000161416170470029816801D0012200E037
:10181000022211438160704701617047002A02690A
:1018200001D00A4300E08A43026170470122D203DB
:101830000029C16801D0114300E09143C1607047A5
:10184000012292030029C16801D0114300E09143B5
:10185000C16070470122D2050029C16801D011433F
:1018600000E09143C1607047090411430162704771
:10187000C2681F239B069A430A43C2607047012235
:1018800092050029C16801D0114300E09143C16075
:10189000704701225149D2050028886801D01043C1
:1018A00000E090438860704701224C49920500286F
:1018B000886801D0104300E090438860704701229F
:1018C000464912060028886801D0104300E0904382
:1018D0008860704700238362836A0B43836242619E
:1018E0007047012252030029C16801D0114300E072
:1018F0009143C1607047012212040029C16801D0E0
:10190000114300E09143C160704701221203002996
:10191000C16801D0114300E09143C1607047826803
:1019200000210123DB071A4382600F231B03826817
:10193000491CD20FD207994201D0002AF7D1816801
:10194000002901DB006C704700207047816810227D
:1019500011438160704781680422114381607047A0
:10196000006C80B270470029C16802D00122114387
:1019700001E049084900C1607047C26802239A43E8
:10198000C260C2680A43C2607047002A426801D040
:101990000A4300E08A434260704702460020CB01C0
:1019A00004D5926801231B069A4300E012680A429C
:1019B00000D0012070470160704702465368002044
:1019C00012680B400A4202D0002B00D00120704761
:1019D000016070470024014003D2FFFF002701404F
:1019E000092110B5C906884202D101214C0404E046
:1019F0005049884209D101210402204600F0E4FA4E
:101A00000021204600F0E0FA10BD4B49884202D187
:101A100001210402F1E74949884202D101210C0564
:101A2000EBE74749884202D101214402E5E74549F5
:101A30008842E9D101218C05DFE7F0B500220124BD
:101A400023460D6893401D409D422AD10D79012DFA
:101A500001D0022D12D1876855000326AE40B7434E
:101A600087604E79AE4085682E43866085889D43A9
:101A7000858085888B7993401D4385800668550055
:101A80000323AB409E4306600E790768AE403E4399
:101A90000660C6689E43C660CB79AB40C5682B43E1
:101AA000C360521C102ACBD3F0BD2749016000212E
:101AB0000171012242718171C1717047012208B523
:101AC00012040A430092C261C1610099C161C169F7
:101AD000C069009008BD0246128A00200A4200D068
:101AE00001207047008A70470246928A00200A420D
:101AF00000D001207047808A70478161704701855E
:101B00007047002A01D0816170470185704781824A
:101B100070474B07DB0E9A40C90810B589000818BA
:101B2000016A0F249C40A1430162016A11430162D2
:101B300010BD00000004004800080048000C0048E8
:101B40000010004800140048FFFF0000F84801683A
:101B50000122114301604168F64A11404160016869
:101B6000F54A11400160016801229204914301602D
:101B700041683F22120491434160C16A0909090189
:101B8000C162016BED4A11400163416B4908490094
:101B90004163002181607047E54900228A708870A6
:101BA000704703460020E2495A090CD0012A0CD0A4
:101BB000022A0CD0496BDA06D20E012393400B4265
:101BC00000D0012070470968F5E7096AF3E7496A20
:101BD000F1E718B500200524240300901120FFF739
:101BE000E0FF0099491C0091A14201D00028F5D0E6
:101BF0001120FFF7D6FF002800D0012018BDCC4AE5
:101C00001168F8239943C000084310607047C84921
:101C10000028086802D00122104301E0400840007B
:101C200008607047C24A516BF8239943C0000843CB
:101C300050637047BE490028486B02D00122104310
:101C400001E04008400048637047B9490422002879
:101C5000486B01D0904300E0104348637047B4499B
:101C60000A6A520852000A620A6A04239A430A6204
:101C70000A6A02430A627047AD490A6A18239A4306
:101C80000A620A6A02430A627047A9490028486A40
:101C900002D00122104301E0400840004862704732
:101CA00010B5A34A53687B24E403A34353605368ED
:101CB00008430343536010BD01229D4912060028CA
:101CC000086801D0104300E090430860704701228B
:101CD000974912040028486B01D0104300E090435C
:101CE00048637047924AD16A090909010143D162E8
:101CF000704701228E49D2040028086801D01043A1
:101D000000E0904308607047894A53681B021B0A31
:101D100000060843184350607047854A5168890897
:101D20008900014351607047814840680C21084098
:101D300070477F4A5168F0239943014351607047CF
:101D40007B4A516807231B02994301435160704746
:101D500077494A6801239B039A434A604A6883B2E1
:101D60001A434A600A6B8B159A430A630A6B000C8C
:101D700002430A6370476E490A6B40239A430A6321
:101D80000A6B02430A63704769490A6B10239A433E
:101D90000A630A6B02430A637047020F6449012A0F
:101DA0000AD0022A0A6B0BD003239B049A430A63CE
:101DB0000A6B02430A6370470A6B92089200F6E7C7
:101DC00003231B04F2E75A490A6B80239A430A63F0
:101DD0000A6B02430A637047F8B5554D04466868BC
:101DE00000210C22564E104005D0042803D00828AC
:101DF00003D00C281AD026601AE0696868680322AC
:101E00008902D2030F0F1040BF1C00280AD0E86AD5
:101E10000107090F3046491C01F020F978430146BB
:101E2000216005E0474839464143F9E746482060CC
:101E30006868464F0006000F3B5C20680246DA40A7
:101E400062606B685B055B0FFB5CDA40A2602B6B2A
:101E5000DB0501D43E4B05E06B685B0401D45308FD
:101E600000E09308E3602B6B5F063A4B03D4394FD5
:101E70001237276100E023612F6BFF0601D46661F2
:101E800000E060612F6BBF070ED02F6BBF07BF0F45
:101E9000012F0BD02F6BBF07BF0F022F08D02F6B66
:101EA000FF43BF0706D006E0A26104E0A06102E0A4
:101EB000A36100E0A6612F6BBF03BF0F0FD02F6B94
:101EC000BF03BF0F012F0CD02F6BBF03BF0F022F1B
:101ED00009D02F6BBF03BF0F032F06D006E0E261CE
:101EE00004E0E06102E0E36100E0E6612F6B3F03A4
:101EF000BF0F0FD02A6B1203920F012A0CD0286B50
:101F00000003800F022809D0286B0003800F0328EC
:101F100006D006E0226204E0206202E0236200E0D4
:101F20002662286B000617D407486062F8BD0000DF
:101F3000001002400CB8FF08FFFFF6FEACFEF0FFF9
:101F400000127A0000093D00006CDC022400002031
:101F5000809FD500008000006162E7E735490A6A8A
:101F600002430A62704701223249D2030028086AFC
:101F700001D0104300E090430862704701222D49D0
:101F800012040028086A01D0104300E09043086260
:101F90007047284A0029516901D0014300E081437C
:101FA00051617047234A0029916901D0014300E043
:101FB0008143916170471F4A0029D16901D00143D3
:101FC00000E08143D16170471A4A0029916A01D02B
:101FD000014300E0814391627047164A0029D168AD
:101FE00001D0014300E08143D1607047114A0029CC
:101FF000116901D0014300E08143116170470D4A2E
:102000000029517A01D0014300E0814351727047A9
:102010000848416A01221206114341627047054A8D
:102020000146926800200A4200D001207047014911
:102030008872704700100240F74910B5884207D1F6
:1020400001218C032046FFF7C8FF0021204627E02E
:10205000F249884202D101214C0404E0F04988424F
:1020600009D101218C042046FFF7C0FF0021204642
:10207000FFF7BCFF10BDEB49884202D10121CC041F
:10208000F1E7E949884202D101210C05EBE7E74974
:10209000884208D101212020FFF79FFF0021202046
:1020A000FFF79BFF10BDE249884206D10121402085
:1020B000FFF793FF00214020F2E7DE498842F1D18B
:1020C00001218020FFF789FF00218020E8E730B55B
:1020D000044600688BB00D464008400020606068F0
:1020E000032109038843A968014361602068D2493C
:1020F000EA680840696811432A6902431143216074
:10210000A06803210902884369690143A160684608
:10211000FFF762FEC048844201D106980AE0BF483A
:10212000844201D1079805E0BD48844201D1089856
:1021300000E0029821680904296800D5400000F0F9
:102140008DFF2A6852088A4200D8401C2168090481
:1021500004D50107B94A490F10400843A0810BB0CC
:1021600030BD4B21C90101600021416081600C221A
:10217000C16002614161704710B542680F231B02C4
:102180009A4318C923430C6849680C4323431343FB
:10219000436010BD0021016041608160C1607047F3
:1021A0000029016802D00122114301E049084900D9
:1021B00001607047002A026801D00A4300E08A43A8
:1021C000026070470122D2030029016801D0114347
:1021D00000E09143016070470122D202002981682A
:1021E00001D0114300E09143816070470122D20485
:1021F0000029416801D0114300E0914341607047DC
:10220000012292040029416801D0114300E091436A
:1022100041607047002A426801D00A4300E08A43C7
:10222000426070470122D2030029416801D0114366
:1022300000E09143416070470122D20500294168C6
:1022400001D0114300E09143416070474269120E92
:102250001206426142690A4342617047028A120AC9
:1022600012020282028A0A43028270470222002975
:10227000016801D0114300E091430160704782681A
:1022800003231B059A43826082680A438260704779
:10229000012212050029416801D0114300E0914359
:1022A00041607047426803235B059A43426042687D
:1022B0000A4342607047C905C90D01857047808C8B
:1022C000C005C00D704742681202120A426042689F
:1022D00009060A434260704701225203002901683F
:1022E00001D0114300E0914301607047026801236F
:1022F000DB029A43026002680A4302607047426848
:1023000010239A43426042680A4342607047426821
:1023100020239A43426042680A4342607047012288
:1023200092030029416801D0114300E091434160CC
:10233000704708220029816801D0114300E09143D1
:1023400081607047028AD2B20282028A09020A437D
:102350000282704720220029816801D0114300E0E9
:1023600091438160704710220029816801D0114398
:1023700000E0914381607047826807235B049A43C1
:102380008260826849040A4382607047426912028F
:10239000120A4261426909060A4342617047826833
:1023A00004239A43826082680A4382607047022253
:1023B0000029816801D0114300E09143816070479A
:1023C000012292030029816801D0114300E091436A
:1023D0008160704782680123DB039A4382608268D0
:1023E0000A438260704702681F235B059A430260BC
:1023F000026849050A430260704702681F231B04F4
:102400009A430260026809040A4302607047002A86
:10241000826815D00A4314E00038014000440040AF
:1024200000480040004C00400050004000140140B3
:1024300000180140001C0140F3E9FFFFF0FF00001D
:102440008A4382607047826801235B039A438260FB
:1024500082680A438260704710B50B041C0E01238A
:102460008B40022C02D0032C02D002E0001D00E0C1
:1024700008300168002A01D0194300E09943016047
:1024800010BD002A028B01D00A4300E08A43028378
:102490007047826801231B039A43826082680A4363
:1024A000826070470246D26900200A4200D00120B3
:1024B00070470162704730B50A04130E01221446BA
:1024C00000258C40012B0ED0022B0ED08368090C06
:1024D0002340C0698A401040002B02D0002800D061
:1024E0000125284630BD0368F1E74368EFE70A0C91
:1024F000012191400162704730B583780121027853
:10250000002B15D09408174BA400E41823689207F9
:10251000D50EFF22AA40934342789207120EAA409A
:102520001A4322600078C006C00E81400E4804E0C5
:10253000D006C00E81400C488030016030BD0B4A8F
:102540000029116901D0014300E081431161704706
:10255000042207490428086902D0904308617047A3
:102560001043FBE700E400E000E100E000ED00E0E4
:1025700000E000E0F94910B5884202D10121C414FD
:102580003AE001218907884206D101210846FFF778
:102590002DFD0021012008E0F149884208D10121E8
:1025A0000220FFF723FD00210220FFF71FFD10BDD1
:1025B000EC49884206D101211020FFF717FD0021C8
:1025C0001020F2E7E849884206D101212020FFF7D8
:1025D0000DFD00212020E8E7E449884207D1841559
:1025E00001212046FFF702FD00212046DDE7E049FA
:1025F000884209D101210C042046FFF7EEFC00219E
:102600002046FFF7EAFC10BDDA49884202D10121D9
:102610004C04F1E7D8498842F5D101218C04EBE75D
:1026200010B50288CD4B984206D00124A407A042E1
:1026300002D0CB4CA04203D17024A2434C88224349
:10264000C84CA04203D0CD4C22400C8922430280CA
:102650004A68C2620A880285984208D0C44A9042F9
:1026600005D0C44A904202D0C34A904201D1897A2F
:1026700001860121818210BD0021C94341600021F2
:10268000018001814180817270470185828270479B
:10269000028870239A430A43028070474162704760
:1026A000C1627047406A7047008D7047022200295E
:1026B000018801D0114300E091430180704704225A
:1026C0000029018801D0114300E091430180704747
:1026D00080220029018801D0114300E0914301804C
:1026E0007047028808239A43028002880A430280C6
:1026F00070470288A14B1A40028002880A43028078
:1027000070470029018802D00122114301E04908E5
:1027100049000180704710B50A884B88CC881A435D
:102720008B8823431A430B891A434B8989891A439F
:102730000A434030828010BD0021018041808180A9
:10274000C1800181418181817047403000298188A9
:1027500003D00122D203114301E04904490C8180D6
:10276000704730B5028C520852000284038C828874
:10277000048B7025AC43A4080D88A40025430224D3
:10278000A3438C891C434B882343744CA04208D03C
:10279000774CA04205D0774CA04202D0764CA042A4
:1027A0000DD10824A343CC891C4304239C438B886C
:1027B0002343724C22400C8A14434A8A224382806B
:1027C000058389684163038430BD70B5028C102392
:1027D0009A430284048C8288038B694D2B400D78C8
:1027E0002D062D0C1D4320239C438B891B051E0C9D
:1027F0004B8826431B051B0C584C3343A04202D088
:102800005B4EB04219D15F4E32400E8AB604360C90
:102810003243A04211D18024A343CC892405240C47
:102820001C4340239C438B881B051B0C2343564CA5
:1028300022404C8AA404240C2243828005838968A8
:102840008163038470BD30B5028C504B1A40028402
:10285000038C8288848B7025AC43A4080D88A40067
:1028600025434B4C23400C7B2406240C1C438B78C3
:102870001B061B0C2343394CA04215D1424C23406C
:102880008C7B2406240C1C433E4B1C400B791B06FE
:102890001B0C23433F4C22400C8A2405240C144378
:1028A0004A8A1205120C2243828085838968C1639B
:1028B000038430BD30B5028C374B1A400284048C3F
:1028C0008388828B2E4D2A400D782D062D0C1543C2
:1028D000324A14400A7B1207120C22438C782407D8
:1028E000240C14431D4A904205D12D4A13400A8AF4
:1028F0009205120C134383808583896801640484E4
:1029000030BD002101804180818081608181C18151
:1029100001824182704730B5034618330124058C8B
:102920008C40A5430584002910D008290ED0091F2A
:102930000804400CC018016807231B039943016079
:1029400001681206120C1143016030BD4808C0181E
:1029500001687023994301600168F4E7002C01408D
:10296000000400400010004000140040002000401F
:10297000004001400044014000480140FFFC0000CD
:10298000FF8C0000FFFB0000FFF70000FFFE0000CF
:10299000FFFD0000FFCF0000FFEF0000FFDF0000A1
:1029A000FFBF00004163704781637047C163704798
:1029B00001647047028B70239A430A430283704775
:1029C000028BF64B09021A40114301837047828B38
:1029D00070239A430A4382837047828BEF4B09022C
:1029E0001A401143818370470029818802D0012257
:1029F000114301E04908490081807047028B082398
:102A00009A430A4302837047028BE54B09021A403E
:102A1000114301837047828B08239A430A438283C0
:102A20007047828BDE4B09021A4011438183704745
:102A3000028B04239A430A4302837047028BD94BCB
:102A400009021A40114301837047828B04239A4381
:102A50000A4382837047828BD24B09021A4011438A
:102A600081837047028B80239A430A430283704715
:102A7000028B5204520C0902114301837047828B6E
:102A800080239A430A4382837047828B5204520CFC
:102A90000902114381837047028C02239A430A433F
:102AA00002847047028C08239A430A4302847047C9
:102AB000028C20239A430901114301847047028C40
:102AC00080239A430901114301847047028CB64B5D
:102AD00009021A40114301847047028CB04B09026D
:102AE0001A40114301847047028CB04B09031A400D
:102AF000114301847047028908239A4302810289A5
:102B00000A430281704710B50123048C8B409C431B
:102B10000484038C8A401343038410BD10B504233E
:102B2000048C8B409C430484038C8A4013430384AD
:102B300010BD04220029818801D0114300E0914397
:102B400081807047828B9A4B1A408283828B090264
:102B50000A4382837047828B0C239A438283828B41
:102B60000A4382837047028B914B1A400283028B87
:102B700009020A4302837047F0B5048C1026B4435F
:102B80000484058B048C8B4F1B0309013D402B43B0
:102B900012021A43A0239C430C433443028304844F
:102BA000F0BD028B0C239A430283028B0A430283FB
:102BB000704770B5048C640864000484058B048C31
:102BC0001B011343F3260A22B54394432B430C43C2
:102BD00001210C430383048470BDF8B504460888C2
:102BE0004E888A880B890D4600281DD0042824D0E1
:102BF0000828208C2AD0704908402084A08B278C7C
:102C000031036C4E120230400243180310436B4AEA
:102C1000A08317400F43012109030F432784E9884C
:102C20002046FFF78FFFF8BD31462046FFF7C1FF72
:102C3000E9882046FFF7B5FFF8BD31462046FFF78B
:102C40009BFFE9882046FFF78EFFF8BD5C490840EE
:102C50002084A18B208C3702F3261B01B143134340
:102C60000B435849A3830840FF21384301310843EF
:102C70002084E9882046FFF76EFFF8BD002101801F
:102C8000418001228280C18001817047F8B50C46E5
:102C90004988002601250746002900D10226A2887E
:102CA000012A00D10225208823890028384610D027
:102CB000FFF762FFE1883846FFF755FF23892A4670
:102CC00031463846FFF775FFE1883846FFF769FF60
:102CD000F8BDFFF76EFFE1883846FFF762FF2389F2
:102CE0002A4631463846FFF747FFE1883846FFF766
:102CF0003AFFF8BD406B7047806B7047C06B704700
:102D0000006C7047002A828901D00A4300E08A43A0
:102D100082817047818270470246128A00200A42EF
:102D200000D001207047C943018270470246138AD0
:102D3000002092890B400A40002B02D0002A00D0CC
:102D400001207047C943018270471143403001811F
:102D50007047002A828901D00A4300E08A438281B9
:102D6000704708220029818801D0114300E0914377
:102D7000818070470189C908C900018170470289B3
:102D800070239A430A430281704710B50446FFF747
:102D9000F6FF208907210843208110BDFF8F000026
:102DA000FFF70000FFFB0000FFFD0000FFDF000059
:102DB000FFF30000FF0C0000FFEF0000FF5F0000CA
:102DC000FFFE0000FFF5000070B516460D460446F4
:102DD00060290CD001223146FFF7EBFE2946204640
:102DE000FFF7CDFF208907210843208170BD012214
:102DF0003146FFF7C1FEF1E710B504891B0213430A
:102E0000E4B20B432343038110BD10B50446FFF722
:102E1000F3FF2089C108C9000720014370208143C6
:102E20000143218110BD10B50446FFF7E5FF20895D
:102E3000012189030843208110BD828870239A43B1
:102E4000828082880A43828070470289D208D20039
:102E5000028102890A4302817047028980239A43D2
:102E6000028102890A430281704770B50689048B8A
:102E7000058CF608F6000E430C4906810C40FF2134
:102E800002310C43AA218D431901114329430483C4
:102E9000018470BD80220029818801D0114300E0A7
:102EA000914381807047403001827047FCFC0000F4
:102EB00010B54D48016801221143016041684B4A39
:102EC0001140416001684A4A1140016001680122D5
:102ED00092049143016041683F2212049143416092
:102EE000C16A09090901C162016BFF225432914391
:102EF0000163416B4908490041630021816000F092
:102F00002EF810BD70B5384D69680C200140394865
:102F1000394C03D0042901D0082901D0206014E0E5
:102F20006A68696803239202DB03160F1940B61C16
:102F3000002907D0E96A0907090F491C00F08EF83B
:102F40007043EBE72D484643266068682A4900062F
:102F5000000F091D085C2168C140216070BD3CB5AF
:102F60000022214801920092016801231943016067
:102F700002210524240305680D400095019D6D1C68
:102F80000195009D002D02D1019DA542F3D1046859
:102F9000A40726D500931A4B11221A60426842609A
:102FA0004268426042687B23DB039A434260426886
:102FB0000523DB041A434260026801231B061A43FF
:102FC000026002689201FCD5426892089200426059
:102FD00042680A43426041680907890F0229FAD111
:102FE0003CBD00923CBD0000001002400CB8FF0840
:102FF000FFFFF6FE00127A003400002000093D00B9
:10300000002002400C4880F308880C480168090E33
:103010000B4A914205D10B480B4901600B480C4902
:1030200001600C4880470C480047FEE7FEE7FEE7DA
:10303000FEE7FEE7FEE70000480400200400000071
:103040001F000000181002400100000000000140B5
:1030500000000000B12E0008B500000830B50B4696
:10306000014600202022012409E00D46D5409D4262
:1030700005D31D469540491B2546954040191546E8
:10308000521E002DF1DC30BDF0B507460846584011
:1030900087B0C00F049048000E4659004008490808
:1030A000BC1A884105D2384631461E4617460B46A3
:1030B00002465800400810434CD0300D03904005A4
:1030C0005900400D490D0590401A0290402872DACF
:1030D00018030121000B0905084301900498009290
:1030E000002805D0019952420020884100920190A9
:1030F000029840210A1A0199009800F083F90546C8
:103100000C466B4607CB00F08DF9C0197141039A4C
:103110000E0D0023D71756401A467A40164344D066
:10312000049A002A2DD0029A012A039A15DC12056E
:10313000C01A914101263605001C7141D20F059E2F
:10314000D2070093019202962A46234600F0CBF95B
:1031500007B0F0BD38463146FAE71605224A0F4659
:10316000B218C01AB74101210905001C4F410018CF
:103170007F41114618187941E20F10436D196441DF
:1031800013E0E2076D0815436408C2071443039A6D
:1031900001261205C01A91413605001C7141CE0767
:1031A000400830434908C01851412A46234600F0E0
:1031B0008DF9CDE7FFE7049801224000C117121AEC
:1031C00000238B4104983146C417381AA141EEE719
:1031D00030B40124E407634030BC55E730B4012427
:1031E000E407614030BC4FE70000E0FFF0B51FB4DA
:1031F00088B00B990998002448400999C00F4900EC
:1032000049080991C0070B990090490049080B91A2
:1032100009990898A64608431CD00B990A980843B8
:1032200018D0099801244000420D4800410D09982A
:1032300024050003000B204309900B980003000BAA
:1032400020430B9050181C4940180022019014464E
:10325000104605E0002001460DB0F0BD032801DA5C
:10326000034600E003239C46C11A0AAE0AE05F0051
:1032700008ADED5B4F00F75B7D430027AA187C414A
:10328000491C5B1E6145F2DD410004AB5A5221042A
:10329000120C0A43240C401C0828DFDB0198029022
:1032A0000099704601910090059B049A0799069831
:1032B00000F019F9D0E700000DFCFFFF10B5002267
:1032C0009623114600F0C9F810BD410040020122CA
:1032D000400AD205090E80187F2901DA00207047C4
:1032E000962903DC9622511AC840704796398840C7
:1032F0007047C20FD207400040080BD0C10D072312
:10330000DB01C91840020905400A1143C208400701
:1033100011437047002001467047000010B5002996
:1033200004DB0124E40740428C412146002B04DBEE
:103330001C460123DB075242A3418B4200D182424B
:1033400010BD000010B5002904DB0124E407404251
:103350008C412146002B04DB1C460123DB07524233
:10336000A341994200D1904210BD0000CB0FDB0772
:10337000490010B5490802460A4307D00A0D072440
:103380000903E401090B121B002A01DC002010BD17
:10339000C900440F0C43C100E018D205801800F0AA
:1033A00054F810BDF0B51FB40646002082B00546A3
:1033B0004024019100901BE0019922460F463046BF
:1033C00000F0F6F8049A059B801A994110D3104634
:1033D0001946224600F016F8361A8F410197224608
:1033E00001200021009F00F00DF838184D41009099
:1033F0002046641E0028DFDC019B009829463246E7
:1034000007B0F0BD10B5202A04DB0146203A9140F8
:10341000002010BD914020239C1A0346E34019432D
:10342000904010BD10B5202A06DBCB170846203A85
:103430001041C1170B4306E00B461341D040202436
:10344000A21A91400843194610BD002904DA401C15
:10345000490001D140084000704770B40024050CB9
:1034600005D11024000402D1002921D01124050E19
:1034700001D100020834050F01D10001241D850F80
:1034800001D18000A41C002801DB4000641C00293D
:1034900008D020252E1B0D46F540A14000D001216B
:1034A0002943084301061B1B000ADB1D02D500202F
:1034B00070BC7047DB05181880180029F8DA401C2A
:1034C0004900F5D170BC40084000704710B5002B92
:1034D00008DA0024401C614192185B411A4301D173
:1034E0004008400010BDF0B51FB482B005460C0086
:1034F00003D0084600F07EF802E000F07BF82030B0
:103500000246009021462846FFF77CFF049B059A5F
:1035100004460F4618431143084314D0184610437D
:103520001BD0009840210A1A1846059900F040F86F
:1035300005460E46009A05990498FFF763FF084375
:1035400005D0012004E02046394607B0F0BD002038
:10355000C11705430E432C43374300990E9863056A
:10356000401A7905E40A00220C43FD0A0A3002D50C
:1035700000200146E9E70105101969410C9C0D9DE9
:1035800000196941FFF7A2FFDFE70000064C0125A3
:10359000064E05E0E36807CC2B430C3C98471034FB
:1035A000B442F7D3FCF78AFD18D6000838D60008D5
:1035B00010B5202A04DB0846203AD040002110BD77
:1035C0000B46D340D0402024A21A9140084319460C
:1035D00010BD00000FB410B503A9044B044A0298B3
:1035E00000F02EF810BC08BC04B018474F020008C9
:1035F000040000202021020C01D010211046020AF4
:1036000001D010460839020901D01046091F82086E
:1036100001D01046891E420801D0881E7047081A42
:10362000704702E008C8121F08C1002AFAD170478B
:103630007047002001E001C1121F002AFBD1704732
:10364000FFB58FB00F460446002606E025280AD0B5
:10365000129A11999047641C761C20780028F5D1A5
:10366000304613B0F0BD00250121A14A009500E0CD
:103670000543641C23780846203B98401042F7D14C
:1036800020782E2815D1042005436078641C2A2850
:103690000AD101CF641C00900BE000990A2251432B
:1036A00030394018641C00902078014630390929CF
:1036B000F3D920786C280ED004DC4C2813D06A286B
:1036C00012D104E074280ED07A280DD10BE001202D
:1036D0004005054307E00121090562780D43824258
:1036E00001D16D18641C641C2078864669284AD074
:1036F00008DC0028B4D058286DD0632810D0642886
:1037000008D140E070286BD0732812D0752860D0A3
:10371000782860D0129A704611999047761CE5E09F
:103720003878694608720020487202A8019001208A
:1037300003E0386801900020C0433F1D69070CD5A5
:10374000002500E06D1C00998D420FDA8542F9DBFF
:103750000199495D0029F5D108E0002500E06D1CC4
:103760008542FCDB0199495D0029F8D1761907E013
:10377000019801990078491C0191129A119990477A
:103780006D1EF5D2B2E00A20029000216802400FBF
:10379000039102280CD001CFC117844600290DDA0D
:1037A0006246084652420021814194462D2008E09D
:1037B000FF1DFF08FF0003CF8446EFE7280504D56F
:1037C0002B206A46107401203CE0E8073AD0202004
:1037D000F7E70A2000E0102000210391029007E0A3
:1037E000102002900021042005430820039100903E
:1037F0006802400F022810D001CF0021844600202B
:103800000D9028071FD5704670280CD0029A102002
:10381000039B42401A430CD015E0FF1DFF08FF0038
:1038200003CF8446EBE740206A46107401200D90D8
:103830000CE06046084306D030206A46107470469B
:10384000507402200D907046582804D029A0019091
:103850000DA80E900DE02CA0F9E76046039B029A9C
:10386000FFF7A0FD019B84469B5C0E9A521E0E92B0
:10387000137060460843F0D10E9805A9081A20304D
:103880000190680701D5009801E00120009001999E
:10389000884203DD01460198081A00E00020002557
:1038A000009006E004A8129A405D119990476D1CA3
:1038B000761C0D988542F5DB04E0129A30201199B0
:1038C0009047761C0099481E00900029F5DC08E01E
:1038D0000E980E990078491C0E91129A11999047F2
:1038E000761C0199481E01900029F1DC641CB4E6A5
:1038F00009280100303132333435363738396162C6
:103900006364656600000000303132333435363789
:1039100038394142434445460000000000000000A1
:103920000000000000000000000000000000002077
:1039300000000000000000E001000000000000E0C6
:1039400007000000000000E003000000000000E0AD
:1039500001000000000000E001000000000000E0A5
:1039600001000000000000E001000000000000E095
:1039700001000000000000E001000000000000E085
:1039800001000000000000E001000000000100E074
:1039900001003000000600E00100780000FEFFFF9B
:1039A000FFFFFF0100FEFFFFFFFFFF00000E00E032
:1039B00001007800000E00E001007800000E00E039
:1039C00001007800000E00E001007800000E00E029
:1039D00001007800000E00E001007800000E00E019
:1039E00001007800000E00E001007800000E00E009
:1039F00001007800000E00E001007800000E00E0F9
:103A000001007800000E00E001007800000E00E0E8
:103A100001007800000E00E001007800000E00E0D8
:103A200001007800000E00E00100780000FEFFFFBA
:103A3000FFFF7F0000FEFFFFFFFF7F00000E00E0A2
:103A400001007800000E00E001007800000E00E0A8
:103A500001007800000600E001003800000100E0ED
:103A600001000000000000E001000000000000E094
:103A700001000000000000E001000000000000E084
:103A800001000000000000E001000000000000E074
:103A900001000000000000E001000000000000E064
:103AA00001000000000000E001000000000000E054
:103AB00001000000000000E001000000000000E044
:103AC00001000000000000E001000000000000E034
:103AD00001000000000000E001000000000000E024
:103AE00001000000000000E001000000000000E014
:103AF00001000000000000E00000000000000020C5
:103B000000000000000000000000000000000000B5
:103B100000000000000000000000000000000000A5
:103B20000000000000000000000000000000000095
:103B3000000000000002000000002000000600005D
:103B40000000700000FEFFFFFFFFFF0100FEFFFF0F
:103B5000FFFFFF01001E00000000F000001E00003B
:103B600000007000001E000000007000001E000039
:103B700000207000001E000000707000001E000099
:103B800000F87000009EFFFFFFFF7100001EFFFFA6
:103B9000FFFF7300001E06C003007000001E00C07F
:103BA00003007000001E00C003007000001E00C073
:103BB00003007000001E00C003007000001E00C063
:103BC00003007000001E00C003007000001E00C053
:103BD00003007000001E00C003007000001E00C043
:103BE000030C7000001E00C0031E7000001EFEFFCC
:103BF000FF3F7000001EFCFFFF7F7000001E18C01A
:103C000003007000001E00C003007000001E00C012
:103C100013007000001E00C073007000001E00C082
:103C2000E3017000001E00C0C3037000001E00C04E
:103C3000830F7000001E00C0830F7000001E00C0C4
:103C4000031F7000001E00C0031E7000001E00C095
:103C5000031E7000001E00C0031E7000001E00C086
:103C6000030C7000001E00C0030C7000001E00C09A
:103C700003207000001E00C003707000001E00C012
:103C800003F8700000DEFFFFFFFF7100009EFFFFE2
:103C9000FFFF7300001E010000007000001E000006
:103CA00000007000001E000000007000001E0000F8
:103CB00000007000001E000000007000001E0000E8
:103CC0000000700000FEFFFFFFFF7F0000FEFFFF0F
:103CD000FFFF7F00001E000000007000001E0000BB
:103CE00000007000001E000000007000001E0000B8
:103CF00000007000000E0000000000000002000044
:103D000000000000000000000000000000000000B3
:103D100000000000000000000000000000000000A3
:103D20000000000000000000000000000000000093
:103D30000000000000000010000000000000007003
:103D400000000000000000F001000000000000F092
:103D500007000000000000F003000000000000F079
:103D600001000000000000F001000000000000F071
:103D700001000000000000F001000000000000F061
:103D800001000000000000F001000000000000F849
:103D900003000000000000F803000000000000F82D
:103DA00003000000000000F803000000000000F81D
:103DB00003000000000000F802000000000000788E
:103DC00006000000000000780600000000000078F7
:103DD0000600000000000078060000000000007CE3
:103DE0000E0000000000007C0E0000000000007CBF
:103DF0000C0000000000003C1C0000000000003C23
:103E00001C0000000000003C1C0000000000003E00
:103E1000380000000000001E380000000000001EF6
:103E2000380000000000001E780000000000001FA5
:103E3000700000000000000FF00000000000000F04
:103E4000E00000000000800FE0010000000080079B
:103E5000E00100000000C007C00300000000C00334
:103E6000C00300000000C003800700000000E00164
:103E7000800F00000000F001000F00000000F000C3
:103E8000001E000000007800003E000000007C00E2
:103E9000007C000000003C0000FC000000001E0050
:103EA00000F8010000000F0000F003000080070090
:103EB00000F0070000C0030000E01F0000E0010068
:103EC00000C03F0000F000000080FF00007800000C
:103ED0000000FF07003C00000000FE1F000F000074
:103EE0000000FC07800300000000F800C001000093
:103EF00000006000700000000000000018000000DA
:103F000000000000000000000000000000000000B1
:103F100000000000000000000000000000000000A1
:103F200000000000000000007FFC1C701C701C7072
:103F30001C701C701C701C701C701C70FC7F1C7032
:103F40001C701C701C701C701C701C701C701C7011
:103F50001C707FFC0000000000000000000000005A
:103F60000000000000000000C007701C3838183046
:103F70001C701C700E600EE00EE00EE00EE00EE015
:103F80000EE00EE00EE00CE01C701C7018303838AB
:103F9000701CC007000000000000000000000000CE
:103FA0000000000000000000FE003800380038006B
:103FB0003800380038003800380038003800380041
:103FC0003800380038003800380038C038C0386051
:103FD0003870FE7F000000000000000000000000BC
:103FE0000000000000000000FE07381E383838309E
:103FF0003870387038E038E038E038E038E038E0E1
:1040000038E038E038E038603870387038383838A0
:10401000380EFE070000000000000000FFFFFFFF59
:10402000FFFFFFFFFFFFFFFFFFFFFFFFFFFFFFFFA0
:10403000FFFFFFFFFFFFFFFFBEF77DEFBAD6B6B56C
:10404000F39CB294B39CB29434A5F7BDFBDE7DEF34
:10405000FFFFFFFFFFFFFFFFFFFFFFFFFFFFFFFF70
:10406000FFFFFFFFFFFFFFFFFFFFFFFFFFFFFFFF60
:10407000FFFFFFFFFFFFFFFFFFFFFFFFFFFFFFFF50
:10408000FFFFFFFFBEF7FBDEF39CCB5AC7390421CD
:10409000821042104210410883184529C7390C6329
:1040A00075AD3CE7BEF7FFFFFFFFFFFFFFFFFFFF20
:1040B000FFFFFFFFFFFFFFFFFFFFFFFFFFFFFFFF10
:1040C000FFFFFFFFFFFFFFFFFFFFFFFFFFFFFFFF00
:1040D000FFFF3CE7B2940842C3188210042145292F
:1040E0008631863186318631452904218210410886
:1040F000C3180842F39C3CE7FFFFFFFFFFFFFFFFF1
:10410000FFFFFFFFFFFFFFFFFFFFFFFFFFFFFFFFBF
:10411000FFFFFFFFFFFFFFFFFFFFFFFFFFFFFFFFAF
:10412000FBDE0C63C318C3184529C739084208428F
:104130000842084208420842C739C73986318631E9
:10414000042141088210CB5ABAD6FFFFFFFFFFFFC0
:10415000FFFFFFFFFFFFFFFFFFFFFFFFFFFFFFFF6F
:10416000FFFFFFFFFFFFFFFFFFFFFFFFFFFFFBDE84
:10417000CB5A82104529C73908420842094A494AA0
:10418000494A494A494A494A0842C739C739C73999
:104190008631452983180000C84138C6FFFFFFFF5C
:1041A000FFFFFFFFFFFFFFFFFFFFFFFFFFFFFFFF1F
:1041B000FFFFFFFFFFFFFFFFFFFFFFFF7DEF8E739E
:1041C00082104529C7390842094A8A523084CF7B78
:1041D0008A52494A4A52494ACB5ACF7B0C63084219
:1041E000C73986314529C3180000494ABAD6FFFFAE
:1041F000FFFFFFFFFFFFFFFFFFFFFFFFFFFFFFFFCF
:10420000FFFFFFFFFFFFFFFFFFFFFFFFF39CC31850
:104210000421C7390842494A494A72947DEF7DEF2B
:10422000B2944A52494A8A5275ADBEF7BAD64D6B1E
:10423000C739C73986314529C3184108CF7B7CE788
:10424000FFFFFFFFFFFFFFFFFFFFFFFFFFFFFFFF7E
:10425000FFFFFFFFFFFFFFFFFFFFBAD608428210FC
:10426000C7390842494A494A8E73FBDEFFFFBEF751
:10427000BAD68E73084230843CE77DEFFFFFB6B5B7
:10428000494AC73986314529042141084529B6B52F
:10429000FFFFFFFFFFFFFFFFFFFFFFFFFFFFFFFF2E
:1042A000FFFFFFFFFFFFFFFFBEF7718C41084529AD
:1042B0000842494A494A4A52B294BEF7BEF7B294FC
:1042C000CF7BCF7B494AB6B5F39C0C6338C6BAD6D0
:1042D0000C638739C73986314529C31841083084B2
:1042E0007DEFFFFFFFFFFFFFFFFFFFFFFFFFFFFF70
:1042F000FFFFFFFFFFFFFFFF3CE7CB5A4108C73935
:104300000842494A4A528A52F39CFFFF7DEFC7395F
:10431000C3180C63CB5AB6B5B294CB5A75ADFAD666
:104320004D6B8739C73986314529042141088A52A6
:1043300079CEFFFFFFFFFFFFFFFFFFFFFFFFFFFF44
:10434000FFFFFFFFFFFFFFFF38C686310421C84192
:10435000494A494A4A52494AB18CBEF7BEF7B2941B
:10436000CF7BCF7B494A74A57DEF7CE7BEF779CE42
:104370000C63C739C7398631452904218210452984
:1043800075ADBEF7FFFFFFFFFFFFFFFFFFFFFFFF62
:10439000FFFFFFFFFFFFFFFF34A5821086310842B9
:1043A000494A494A8A52494A4D6BBAD6FFFFFFFF34
:1043B00079CE0D63C739CF7B7DEFFFFFFFFF75AD72
:1043C00008428631C739863145294529C318C318A3
:1043D000B2947DEFFFFFFFFFFFFFFFFFFFFFFFFF37
:1043E000FFFFFFFFFFFFBEF7B28C4108C73908424D
:1043F000494A494A8A528A524A4AD07B7AC67BBE87
:10440000906BC9398831C939B384BBC6F8B5CC5A69
:104410008631C739C739863145294529C420410825
:1044200030843CE7FFFFFFFFFFFFFFFFFFFFFFFFC1
:10443000FFFFFFFFFFFF3CE78A4AC310C73908426E
:10444000494A494A4A4A4A42093A084A096B497B59
:10445000C67A05834683C57AC672097B485A873176
:10446000882188298631863145294529042141083A
:104470004A4ABAD6FFFFFFFFFFFFFFFFFFFFFFFF24
:10448000FFFFFFFFFFFFF7C582500541C729084224
:10449000494A4A42494A097B889BC6B321D4A0DCD9
:1044A000E1E461ED61ED21EDA0E420DC80CB43ABE4
:1044B000C482065A47214629452904290419821035
:1044C0008218F39C7DEFFFFFFFFFFFFFFFFFFFFF61
:1044D000FFFFFFFF7DEF4D9300A082B8C731093287
:1044E000494A867A43C36BEDF4F6EBFD20FD20FDCF
:1044F00060FDA0FDA0FD60FD60FD20FDE0FCA0FCD6
:1045000060F4C1DB839AC54945290419C420823867
:104510000050CB6ABAD6FFFFFFFFFFFFFFFFFFFF90
:10452000FFFFFFFFFBEE04A100C000F0C3A0C841E5
:104530004942059B20FCA4FC69FDE8FD63FD20FDCC
:1045400060FD60FD60FD20FD20FDE0FCE0FCA0FCC6
:1045500060FC20FC41D3C5494519C43882684188B4
:104560000070495A79CEFFFFFFFFFFFFFFFFFFFFFB
:10457000FFFFFFFFFBF682C000D086C146F141C8B5
:10458000457989528862866AC67AC4BBE1FC60FDBF
:1045900060FDA0FDA0FD60FD60FDE0FC60E4039314
:1045A0008472446AC5414529C35841A8409800B067
:1045B00000600C6B79CEFFFFFFFFFFFFFFFFFFFFE7
:1045C000FFFF7DEFCE83828800F8C4D80CF38AFA0F
:1045D00082E882B04569C7510842083A865A839BEF
:1045E000A2BC22CD21CDA1C422B4C47A063A862928
:1045F00045290531C450419000C000A800A000A882
:1046000000304A4ABAD6FFFFFFFFFFFFFFFFFFFF60
:104610007DEF8E73C318053982A800F8C3F84DFBEF
:104620004DFBC7F9C3F082D8C3B004814561465140
:104630008649864946414541454145410549046110
:10464000829041B000D000C800A800A800B841582E
:1046500082108210B294BEF7FFFFFFFFFFFFBEF78C
:10466000CF7B8210042186298641049940E841F8D5
:1046700086F9CBFA49FA82F800F800F000E841D850
:1046800041D041C041C041C041C041C800D000E05C
:1046900000E000D800D000B800A84188824882100D
:1046A00082100000452979CEFFFFFFFFBEF7F39C83
:1046B0008210C31845298631C731307CF3DC86E18E
:1046C00000F000F841F841F800F800F800F800F8B0
:1046D00000F800F800F800F800F800F800E800E042
:1046E00000E000D800C841A08A9A0C63041182102F
:1046F0008210410800004D6B7DEFFFFFFBDE08429A
:104700004210452986318631494A38BEFFFF38D6E6
:1047100086A900C800E000F000F800F800F800F8F2
:1047200000F800F800F800F800F000F000E800E001
:1047300000D0C3988A8AB2A4BAC6F7B50842410825
:104740008210410800004529F7BDFFFF718C410828
:1047500004214529863186310C633CE7FFFF79D679
:1047600046B900E042C882A882B041D882E882F00F
:1047700041E841E841E841F041E841D804C10892EC
:104780004D8B34A5FBC6FBD6BACE3CE73084C318AC
:104790004108410800004108CF7B7DEF494A0000F5
:1047A00004214529463186313084FFFFFFF7F7DDCC
:1047B00009DA83F801F042C08298499AF3B4F3CC45
:1047C00071BC8EBB8EBB30BC71BCF3BCB6BDFBCE26
:1047D000BEE77DE73BDFBAD679CEFBDE75AD86312D
:1047E0004108410800000000494AFBDE042141085D
:1047F0000421452945298739B294FFFFBEF734DDEE
:104800000CEB09FA00F001D800D88BD27DE7FFFF4E
:10481000FFFFFFFFFFFFFFFFFFFFFFFFFFFFBEFFE9
:104820007DEFFBDEFBDEBAD679CEBAD678C6C739C5
:104830000000410800000000C73979CE0000821056
:10484000C318042105298631B39CFFFFFFF775DDEE
:10485000C7E9C7F901F801F000E849E2FBEEFFFF04
:10486000FFFFFFFFFFFFFFFFFFFFFFFFFFFFBEF7A1
:104870007DEFFBDEFBDEBAD679CEBAD6B9CE0842E2
:104880000000000000000000C73938C60000821098
:1048900082100421042145293084FFFFFFFF38DE08
:1048A000C4D000F001F800F800F008D2FBE6FFFFEA
:1048B000FFFFFFFFFFFFFFFFFFFFFFFFFFFFBEF751
:1048C0007DEFFBDEBAD679CE79CEBAD679CEC739AE
:1048D0004108000000000000863138C600000000DA
:1048E000C318CB5A8631C318CB5A7DEFFFFF7DEF3B
:1048F000CFBBC3B041D041D082B84DB37DE7FFFFFD
:10490000FFFFFFFFFFFFFFFFFFFFFFFFBEF7BEF749
:104910003DEFFBDEBAD679CE79CEFAD6F7BD0421CB
:104920008631042100000000863138C68631C31864
:10493000CB5A75ADCF7B41088631F7BDFFFFFFFF36
:10494000BEEF74B5309C309C72A4BBD6FFFFFFFF56
:10495000FFFFFFFFFFFFFFFFFFFFFFFFBEF77DEF42
:104960003CE7FBDEBAD679CE79CE3CE7718C810884
:104970000C63CF7B821000008A5238C675AD718CF3
:10498000B6B53CE7FBDEC7390000CF73FFFFFFFF82
:10499000FFFFFFFFFFFFFFFFFFFFFFFFFFFFFFFF27
:1049A000FFFFFFFFFFFFFFFFFFFFBEF77DEF7DEF84
:1049B0003BDFFAD679CE79CEFBDEB9CEC739C4203B
:1049C000718CBAD6718CCB5AB294BAD6FFFF7DEFF8
:1049D0007DEFFFFFFFFFB6B54629051975A5FFFF5F
:1049E000FFFFFFFFFFFFFFFFFFFFFFFFFFFFFFFFD7
:1049F000FFFFFFFFFFFFFFFFFFFFBEF77DEF3CE77D
:104A0000FBDEBAD679CEBAD6FCDE4E6342080C6322
:104A1000F7BDBEF7FFFFFBDEFBDEBEF7FFFFFFFFCC
:104A2000FFFFFFFFFFFFFFFFF49C04210521B6A558
:104A3000FFFFFFFFFFFFFFFFFFFFFFFFFFFFFFFF86
:104A4000FFFFFFFFFFFFBEF7BEF77DEF3CE7FBDE9A
:104A5000BAD679CEFBDEBBD6D17383188639349DA6
:104A6000BDEFFFFFFFFFFFFFFFFFFFFFFFFFFFFFA8
:104A7000FFFFFFFFBEFF35D6EBCC43B34051051916
:104A8000F58CBEEFFFFFFFFFFFFFFFFFFFFFFFFF04
:104A9000FFFFBEF7BEF77DEF7DEF3CE7FBDEBADE42
:104AA000BAD63CDF3ABE4F63824940A323B4CC83DD
:104AB0003ABEFFFFFFFFFFFFFFFFFFFFFFFFFFFF0C
:104AC000FFFFBFF7B5BD829220F4A0FC60E44082F6
:104AD00084418F6B77AD3DE7FFFFFFFFFEFFBEF721
:104AE000BEF7BEF77DEF7DEF3CE7FBDEFBDE3DE78B
:104AF000BBCE369D0B6B416A60C420FE60F5008B17
:104B0000C76A38C6BEF7FFFFFFFFFFFFFFFFFFFFCB
:104B1000FFFF7DEF4B7B80B2A0FCA0FCE0FCE0FC43
:104B2000C0CBC18A45624D6BB394F7BD3DDFFFF743
:104B3000FFFFBEF77DEF7DEF7DE73DDFBAC675A5D0
:104B40008D7B847A40B3E0ECE0FDE0FD60F520E58C
:104B5000A0D40A6BFBDEFFFFFFFFFFFFFFFFFFFF9D
:104B6000FFFF7DEFCC9340EB60FCA0FCE0FC20FD60
:104B700060FD20F5A0D4C0BB429B458B6B9CAE9CD6
:104B8000718CB394339D34A5F2A4F0B4CA9B049BFA
:104B900040BB20E420FDA0FDA0FDE0FDE0FDE0FD28
:104BA00020C4885A38BEFFFFFFFFFFFFFFFFFFFF53
:104BB000FFFFFFFF78D646AB40DB20F460FCA0FC93
:104BC000E0FC60FDA0FD60FD20F5A0DCC0B3C0519D
:104BD00086290D638F7B0D5BC741018200C3C0E353
:104BE00060FCA0FCE0FCE0FC60F560F520E5809B4B
:104BF0008662308479CEFFFFFFFFFFFFFFFFFFFFDC
:104C0000FFFFFFFFFFFF38C62D9C059343A382B330
:104C1000C2BBC2BB22B482A34293C37A85620B6338
:104C20007184B6B579CE79C6B5AD70944A8B0683DA
:104C30000493049B439B439B4393048308738D73AA
:104C4000B39479CE7DEFFFFFFFFFFFFFFFFFFFFF74
:104C5000FFFFFFFFFFFFFFFF3CDF38BE75B533A549
:104C600033A5F39CF39CF39CF394F39C35A5F8BD1A
:104C7000FBDEBEF7FFFFFFFFFFFF7EEFBBD6F8BDF9
:104C8000B6AD75AD34A5339D349D35A5B7AD79C6A8
:104C90003CE7BEF7FFFFFFFFFFFFFFFF704A704AD0
:104CA000704A704A704A704A704A704A704A704A34
:104CB000704A704A704A704A704A704A704A704A24
:104CC000704A704A704A704A704A704A704A704A14
:104CD000704A704A704A704A704A704A704A704A04
:104FF000704A704A7052704A704A704A7052704AD1
:10500000704A704A7052704A704A704A7052704AC0
:10501000704A704A7052704A704A704A7052704AB0
:10502000704A704A7052704A704A704A7052704AA0
:10503000704A704A7052704A704A704A7052704A90
:10504000704A704A7052704A704A704A7052704A80
:10505000704A704A7052704A704A704A7052704A70
:10506000704A704A7052704A704A704A7052704A60
:10507000704A704A7052704A704A704A7052705248
:105080007052705270527052705270527052705210
:105090007052705270527052705270527052705200
:1050A00070527052705270527052705270527052F0
:1050B00070527052705270527052705270527052E0
:10538000705270528F5A2C7383DD01EE86B4AE5A80
:105390006F527052705270527052705270527052FE
:1053A00070527052705270527052705270527052ED
:1053B00070527052705270527052705270527052DD
:1053C00070527052705270527052705270527052CD
:1053D00070527052705270527052705270527052BD
:1053E00070527052705270527052705270527052AD
:1053F000705270527052705270527052705270529D
:10540000705270527052705270527052705270528C
:105410007052AE6267AC20F640FE82DD2A738F5276
:10542000705270527052705270527052705270526C
:10543000705270527052705270527052705270525C
:10544000705270527052705270527052705270524C
:10545000705270527052705270527052705270523C
:10546000705270527052705270527052705270522C
:10547000705270527052705270527052705270521C
:10548000705270527052705270527052705270520C
:1054900070527052705270527052705270527052FC
:1054A000CE62E5C440FE60FEC1E568838E5A6F524D
:1054B00070527052705270527052705270527052DC
:1054C00070527052705270527052705270527052CC
:1054D00070527052705270527052705270527052BC
:1054E00070527052705270527052705270527052AC
:1054F000705270527052705270527052705270529C
:10550000705270527052705270527052705270528B
:10551000705270527052705270527052705270527B
:105520007052705270527052705270527052EE62DD
:1055300005C540FE60FEC1E568838E5A6F52705209
:10554000705270527052705270527052705270524B
:10555000705270527052705270527052705270523B
:10556000705270527052705270527052705270522B
:1055700070527052705270527052705270526F521C
:1055800070526F5270526F5270526F5270526F520F
:1055900070526F5270526F5270526F5270526F52FF
:1055A0007052AF5A6B8305C5C6BC2C736F526F52D5
:1055B00070526F5270526F5270526F52EE6205C548
:1055C00040FE60FEC1E568838E5A6F5270526F5282
:1055D00070526F5270526F52CE62099C25CD47A413
:1055E000ED6A8F5270526F5270526F5270526F52FA
:1055F00070526F5270526F5270526F5270526F529F
:1056000070526F5270526F5270527052705270528C
:10561000705270527052705270527052705270527A
:10562000705270527052705270527052705270526A
:105630000D6B24CD20F621F643D5ED6A8F5A7052BA
:1056400070527052705270527052EE6205C540FE38
:1056500060FEC1E568838E5A6F527052705270526C
:1056600070527052AF5AAA8BC2E540FEE1EDC8936A
:105670008E5A6F52705270527052705270527052F5
:10568000705270527052705270527052705270520A
:10569000705270527052705270526F5270526F52FC
:1056A00070526F5270526F5270526F5270526F52EE
:1056B00070526F5270526F5270526F5270524C7BD8
:1056C00083DD40FE60FE20F666ACCD626F526F5205
:1056D00070526F5270526F52CE62E5C440FE60FE4F
:1056E000C1E568838E5A6F5270526F5270526F527A
:1056F0008F524C7B63D560FE60FE00F646A46D526F
:105700006F526F5270526F5270526F5270526F528E
:1057100070526F5270526F5270526F5270526F527D
:1057200070526F52705270526F5270526F5270526C
:105730006F5270526F5270526F5270526F5270525D
:105740006F5270526F5270526F527052AE6247ACCD
:1057500020F640FE40FE01F6A98B8E5A6F52705221
:105760006F5270526F52CE62C6BC40FE60FEA1E521
:10577000497B6E5A6F5270526F5270528F5ACE627E
:1057800025CD20F660FE40FE62DDE96A6E526F5262
:105790006F5270526F5270526F5270526F527052FD
:1057A0006F5270526F5270526F5270526F527052ED
:1057B0006F5270526F5A6F52705A6F526F5A6F52C7
:1057C000705A6F526F5A6F52705A6F526F5A6F52AF
:1057D000705A6F526F5A6F52705A8F5AED6A04CDD9
:1057E00020F660FE40FE62DD4A7B6F526F5A6F52B8
:1057F000705A6F52AF5A6B8363D5A2DD85B48B5A52
:105800006F526F526F5A6F528F5ACE6248A4E1EDB9
:1058100060FE40FEE1EDE6934C526F526F526F52C4
:10582000705A6F526F5A6F52705A6F526F5A6F524E
:10583000705A6F526F5A6F52705A6F526F5A6F523E
:10584000705A705A6F5A905A6F5A705A6F5A905ACB
:105850006F5A705A6F5A905A6F5A705A6F5A905ABC
:105860006F5A705A6F5A905A6F5A8F5A4B7B63DD3A
:1058700040FE60FE20FE04C58D5A6F5A6F5A905A42
:105880006F5A705A8F5A0B730A738B622E4A6F527B
:105890006F5A705A6F5A8F5A4C7BE1ED40FE40FEB2
:1058A00020FE64B48B5A4E526F52705A6F5A905AFF
:1058B0006F5A705A6F5A905A6F5A705A6F5A905A5C
:1058C0006F5A705A6F5A905A6F5A705A6F5A905A4C
:1058D0006F5A6F5A6F5A6F5A6F5A6F5A6F5A6F5A80
:1058E0006F5A6F5A6F5A6F5A6F5A6F5A6F5A6F5A70
:1058F0006F5A6F5A6F5A6F5A6F5A8F5A089CE1ED60
:1059000040FE40FE82DDEB6A8F5A6F5A6F5A6F5A23
:105910006F5A8F5A8F5A6E5A6F5A6F526F5A6F5A08
:105920006F5A6F5AAF6228A440FE60FE20F642D53F
:105930006A5A4E526F526F5A6F5A6F5A6F5A6F5A55
:105940006F5A6F5A6F5A6F5A6F5A6F5A6F5A6F5A0F
:105950006F5A6F5A6F5A6F5A6F5A6F5A6F5A8F5ADF
:105960006F5A905A6F5A8F5A6F5A905A6F5A8F5A6D
:105970006F5A905A6F5A8F5A6F5A905A6F5A8F5A5D
:105980006F5A905A6F5A8F5A6F5AED6A47ACE1EDD1
:10599000E1EDC4BC6C5A6F5A8F5ACE620D73AB8B5B
:1059A000099C48A448AC28A4E9936C83EE6AAF62D2
:1059B0008F5A8F5A4B7BA2E5E1ED62D5287B6D5261
:1059C0006F52905A6F5A8F5A6F5A905A6F5A8F5A15
:1059D0006F5A905A6F5A8F5A6F5A905A6F5A8F5AFD
:1059E0006F5A905A6F5A8F5A6F5A905A8F5A6F5AED
:1059F0008F5A6F5A8F5A6F5A8F5A6F5A8F5A6F5ADF
:105A00008F5A6F5A8F5A6F5A8F5A6F5A8F5A6F5ACE
:105A10008F5A6F5A8F5A6F5A8F5AAE62A98BC7939B
:105A2000AA624D52AE622D7368AC83DDE1ED01F6E2
:105A300020F620FE20F601F6C2E504CDAA8BCE6A40
:105A4000AF62AE626A83E79BE9722D526F526F5A62
:105A50008F5A6F5A8F5A6F5A8F5A6F5A8F5A6F5A7E
:105A60008F5A6F5A8F5A6F5A8F5A6F5A8F5A6F5A6E
:105A70008F5A6F5A8F5A6F5A8F5A8F5A6F5A8F5A3E
:105A80008F5A8F5A6F5A8F5A8F5A8F5A6F5A8F5A0E
:105A90008F5A8F5A6F5A8F5A8F5A8F5A6F5A8F5AFE
:105AA0008F5A8F5A6F5A8F5A8F5A6F5A4E526E5A58
:105AB000ED6A87ACC2E540FE40FE40FE40FE60FE5F
:105AC00060FE40FE40FE40FE40FE20FE43D5CA93ED
:105AD000AE628F5A6E524E526F526F5A6F5A8F5A31
:105AE0008F5A8F5A6F5A8F5A8F5A8F5A6F5A8F5AAE
:105AF0008F5A8F5A6F5A8F5A8F5A8F5A6F5A8F5A9E
:105B00008F5A8F5A6F5A8F5A8F5A6F5A8F5A6F5AAD
:105B10008F5A6F5A8F5A6F5A8F5A6F5A8F5A6F5ABD
:105B20008F5A8F628F5A8F5A8F5A6F5A8F5A6F5A65
:105B30008F5A6F5A8F5A6F5A8F5AAE626B8344D501
:105B400001F640FE60FE60FE40FE40FE20F620F6BC
:105B500020F640FE40FE60FE40FE20FEC2E586B418
:105B6000CD628F5A6F5A6F5A8F5A6F5A8F5A6F5A27
:105B70008F5A6F5A8F5A8F5A8F5A8F628F5A6F5A15
:105B80008F5A6F5A8F5A6F5A8F5A6F5A8F5A6F5A4D
:105B90008F5A6F5A8F5A8F5A8F5A8F5A8F5A8F5ADD
:105BA0008F5A8F5A8F5A8F5A8F5A8F5AAF626C837F
:105BB00048A4E9934C7B0D73CE62AF628F5A8F5A23
:105BC0008F5A8F5A8F5A8F626C8363DD40FE40FE7E
:105BD00040FE20F6C1E542D5C4BC45AC26A485B440
:105BE00004CD82DD01EE40FE40FE40FE01F686B4AB
:105BF000ED6A8F5A8F5A8F5A8F5A8F5A8F5AAF62C7
:105C0000CE6A2D738B83099CE993ED6A8F5A8F5A64
:105C10008F5A8F5A8F5A8F5A8F5A8F5A8F5A8F5A3C
:105C20008F5A8F5A8F5A6F5A8F5A8F5A8F5A6F5A6C
:105C30008F5A8F5A8F5A6F5A8F5A4C7B63DD40FEB2
:105C400040FEC2ED24CD48A44C7BAE628F5A6F5A01
:105C50008F5A8F622D7364D540FE60FE40FE00F6C1
:105C600003C568838B5A2D4A2E524E524E524D52C6
:105C7000EB7226A4A1E540FE40FE40FE20FE27A4D4
:105C8000AE628F5A8F5A8F5A8F5ACE6AAA8B87B4B8
:105C900064D501F640FE40FE66ACAD628F5A6F5A85
:105CA0008F5A8F5A8F5A6F5A8F5A8F5A8F5A6F5AEC
:105CB0008F5A8F5A8F5A8F5A8F5A8F5A8F5A8F5A9C
:105CC0008F5A8F5A8F5A8F5A8B8BC2E560FE60FEB7
:105CD00040FE20FE01F601EE44D54B838F628F5AC1
:105CE000CE6AC6BC21F640FE40FEE1ED25A46B5A0B
:105CF0006D5A6E5A6F5A8F5A6F5A6F5A6F5A8F6217
:105D0000AE620B7343D520F660FE40FEE1ED898B59
:105D10006F5A8F5ACE6A28A4C2E501F621F640FEDA
:105D200040FE60FE40FE43D5AC626F5A8F5A8F5AD8
:105D30008F5A8F5A8F5A8F5A8F5A8F5A8F5A8F5A1B
:105D40008F5A8F5A8F5A8F5A8F5A8F5A8F5A8F5A0B
:105D50008F5A8F5A8F5A0D73C5BCE1ED20F640FE65
:105D600060FE60FE60FE01F6C5BC8E5AAF626B83BA
:105D700001EE40FE40FE00F626A48B624E526F5AA2
:105D80006F5A8F5A8F5A8F5A8F5A8F5A8F5A8F5AEB
:105D90008F622B7B24D520FE60FE20FE24CDAD62D9
:105DA0008F5A8B83A2E540FE60FE60FE60FE40FEDF
:105DB00000F6A2E5C7936D5A6F5A8F5A8F5A8F5AC1
:105DC0008F5A8F5A8F5A8F5A8F5A8F5A8F5A8F5A8B
:105DD0008F5A8F5A8F5A8F5A8F5A8F5A8F5A8F5A7B
:105DE0008F5A8F5A8F5AEC72888BA4BCC1E520F66B
:105DF00020FE40FE00F6E4C46D5ACD6A05C540FEA3
:105E000060FE20F6C4BC6B5A4E528F5A8F5A8F5A7E
:105E10008F5A8F5A8F5A8F5A8F5A8F5A8F5A8F5A3A
:105E20008F5AAA8BE1ED40FE60FEC1ED898BAE6218
:105E3000AB8BC2E520FE20FE20F600F662DD45AC0D
:105E4000287B6C5A4E5A8F5A8F5A8F5A8F5A8F5AB4
:105E50008F5A8F5A8F5A8F5A8F5A8F5A8F5A8F5AFA
:105E60008F5A8F5A8F5A8F5A8F5A8F5A8F5A8F5AEA
:105E70008F5A8F5A8F628E628D62AC62888BA5B406
:105E800043D5E4C409734D5A6B83C2ED40FE60FEF6
:105E9000A1E5287B6D5A6F5A8F5A8F5A8F5A8F5AA5
:105EA0008F5A8F5A8F5A8F5A8F5A8F5A8F5A8F5AAA
:105EB000CE6A86B440FE60FE00F685B4AD62CD6A5F
:105EC00047AC43D503CD25A409736B5A4C5A6D5A80
:105ED0006F5A6F5A8F5A8F5A8F5A8F5A8F5A8F5ABA
:105EE0008F5A8F5A8F5A8F5A8F5A8F5A8F5A8F5A6A
:105EF0008F5A8F5A8F5A8F5A8F5A8F5A8F5A8F5A5A
:105F00008F5A8F5A8F5A8F5A6F5A8E62AD6A0B739F
:105F1000CB6A6D5A6F5A09A401F640FE40FE03CDCC
:105F20004C5A6E5A6F5A8F5A8F5A8F5A8F5A8F5AAD
:105F30008F5A8F5A8F5A8F5A8F5A8F5A8F5AAF62F1
:105F40004C7B01F640FE20FE62D5AC628E62CE6ACA
:105F50000B73CB6A8C626E5A6E5A6F5A6F5A8F5A95
:105F60008F5A8F5A8F5A8F5A8F5A8F5A8F5A8F5AE9
:105F70008F5A8F5A8F5A8F5A8F628F5A8F628F5AC9
:105F80008F628F5A8F628F5A8F628F5A8F628F5AA9
:105F90008F628F5A8F628F5A8F626F5A6F5A6F5A01
:105FA0006F5A8F5A87B440FE60FE20F645AC2D52E2
:105FB0006F5A8F5A8F628F5A8F628F5A8F628F5AA1
:105FC0008F628F5A8F628F5A8F628F5A8F62EE6AFA
:105FD00083DD40FE40FE01F6AB626F5A8F626F5A5E
:105FE0006F5A6F5A8F5A8F5A8F628F5A8F628F5A99
:105FF0008F628F5A8F628F5A8F628F5A8F628F5A39
:106000008F628F5A8F628F628F628F628F628F6210
:106010008F628F628F628F628F628F628F628F62F8
:106020008F628F628F628F628F628F628F628F62E8
:106030008F62C6BC60FE60FEE1EDC7934E528F5A80
:106040008F628F628F628F628F628F628F628F62C8
:106050008F628F628F628F628F628F62EE6A24CD51
:1060600020F660FE40FECA6A6E5A8F628F628F62AF
:106070008F628F628F628F628F628F628F628F6298
:106080008F628F628F628F628F628F628F628F6288
:106090008F628F628F628F628F628F628F628F6278
:1060A0008F628F628F628F628F628F628F628F6268
